{
  "address": "0xf5c1F62b602cCf3545ff5ed90e7eC7032915fE8D",
  "abi": [
    {
      "inputs": [],
      "name": "HandlesAlreadySavedForRequestID",
      "type": "error"
    },
    {
      "anonymous": false,
      "inputs": [
        {
          "indexed": true,
          "internalType": "uint256",
          "name": "pollId",
          "type": "uint256"
        },
        {
          "indexed": false,
          "internalType": "uint256",
          "name": "requestId",
          "type": "uint256"
        }
      ],
      "name": "FinalizationRequested",
      "type": "event"
    },
    {
      "anonymous": false,
      "inputs": [
        {
          "indexed": true,
          "internalType": "uint256",
          "name": "pollId",
          "type": "uint256"
        },
        {
          "indexed": false,
          "internalType": "string",
          "name": "title",
          "type": "string"
        },
        {
          "indexed": false,
          "internalType": "string[]",
          "name": "options",
          "type": "string[]"
        },
        {
          "indexed": false,
          "internalType": "uint64",
          "name": "startTime",
          "type": "uint64"
        },
        {
          "indexed": false,
          "internalType": "uint64",
          "name": "endTime",
          "type": "uint64"
        },
        {
          "indexed": true,
          "internalType": "address",
          "name": "creator",
          "type": "address"
        }
      ],
      "name": "PollCreated",
      "type": "event"
    },
    {
      "anonymous": false,
      "inputs": [
        {
          "indexed": true,
          "internalType": "uint256",
          "name": "pollId",
          "type": "uint256"
        },
        {
          "indexed": false,
          "internalType": "uint32[]",
          "name": "results",
          "type": "uint32[]"
        }
      ],
      "name": "PollFinalized",
      "type": "event"
    },
    {
      "anonymous": false,
      "inputs": [
        {
          "indexed": true,
          "internalType": "uint256",
          "name": "pollId",
          "type": "uint256"
        },
        {
          "indexed": true,
          "internalType": "address",
          "name": "voter",
          "type": "address"
        }
      ],
      "name": "VoteCast",
      "type": "event"
    },
    {
      "inputs": [
        {
          "internalType": "string",
          "name": "title",
          "type": "string"
        },
        {
          "internalType": "string[]",
          "name": "options",
          "type": "string[]"
        },
        {
          "internalType": "uint64",
          "name": "startTime",
          "type": "uint64"
        },
        {
          "internalType": "uint64",
          "name": "endTime",
          "type": "uint64"
        }
      ],
      "name": "createPoll",
      "outputs": [
        {
          "internalType": "uint256",
          "name": "pollId",
          "type": "uint256"
        }
      ],
      "stateMutability": "nonpayable",
      "type": "function"
    },
    {
      "inputs": [
        {
          "internalType": "uint256",
          "name": "requestId",
          "type": "uint256"
        },
        {
          "internalType": "bytes",
          "name": "cleartexts",
          "type": "bytes"
        },
        {
          "internalType": "bytes[]",
          "name": "signatures",
          "type": "bytes[]"
        }
      ],
      "name": "decryptionCallback",
      "outputs": [
        {
          "internalType": "bool",
          "name": "",
          "type": "bool"
        }
      ],
      "stateMutability": "nonpayable",
      "type": "function"
    },
    {
      "inputs": [
        {
          "internalType": "uint256",
          "name": "pollId",
          "type": "uint256"
        },
        {
          "internalType": "uint256",
          "name": "optionIndex",
          "type": "uint256"
        }
      ],
      "name": "getEncryptedCount",
      "outputs": [
        {
          "internalType": "euint32",
          "name": "",
          "type": "bytes32"
        }
      ],
      "stateMutability": "view",
      "type": "function"
    },
    {
      "inputs": [
        {
          "internalType": "uint256",
          "name": "pollId",
          "type": "uint256"
        }
      ],
      "name": "getEncryptedCounts",
      "outputs": [
        {
          "internalType": "bytes32[]",
          "name": "",
          "type": "bytes32[]"
        }
      ],
      "stateMutability": "view",
      "type": "function"
    },
    {
      "inputs": [],
      "name": "getPollCount",
      "outputs": [
        {
          "internalType": "uint256",
          "name": "",
          "type": "uint256"
        }
      ],
      "stateMutability": "view",
      "type": "function"
    },
    {
      "inputs": [
        {
          "internalType": "uint256",
          "name": "pollId",
          "type": "uint256"
        }
      ],
      "name": "getPollInfo",
      "outputs": [
        {
          "internalType": "string",
          "name": "title",
          "type": "string"
        },
        {
          "internalType": "string[]",
          "name": "options",
          "type": "string[]"
        },
        {
          "internalType": "uint64",
          "name": "startTime",
          "type": "uint64"
        },
        {
          "internalType": "uint64",
          "name": "endTime",
          "type": "uint64"
        },
        {
          "internalType": "address",
          "name": "creator",
          "type": "address"
        },
        {
          "internalType": "bool",
          "name": "finalized",
          "type": "bool"
        },
        {
          "internalType": "bool",
          "name": "decryptionPending",
          "type": "bool"
        },
        {
          "internalType": "uint256",
          "name": "totalVoters",
          "type": "uint256"
        }
      ],
      "stateMutability": "view",
      "type": "function"
    },
    {
      "inputs": [
        {
          "internalType": "uint256",
          "name": "pollId",
          "type": "uint256"
        }
      ],
      "name": "getRequestId",
      "outputs": [
        {
          "internalType": "uint256",
          "name": "",
          "type": "uint256"
        }
      ],
      "stateMutability": "view",
      "type": "function"
    },
    {
      "inputs": [
        {
          "internalType": "uint256",
          "name": "pollId",
          "type": "uint256"
        }
      ],
      "name": "getResults",
      "outputs": [
        {
          "internalType": "uint32[]",
          "name": "",
          "type": "uint32[]"
        }
      ],
      "stateMutability": "view",
      "type": "function"
    },
    {
      "inputs": [
        {
          "internalType": "uint256",
          "name": "pollId",
          "type": "uint256"
        }
      ],
      "name": "getTotalVoters",
      "outputs": [
        {
          "internalType": "uint256",
          "name": "",
          "type": "uint256"
        }
      ],
      "stateMutability": "view",
      "type": "function"
    },
    {
      "inputs": [
        {
          "internalType": "uint256",
          "name": "pollId",
          "type": "uint256"
        },
        {
          "internalType": "address",
          "name": "user",
          "type": "address"
        }
      ],
      "name": "hasUserVoted",
      "outputs": [
        {
          "internalType": "bool",
          "name": "",
          "type": "bool"
        }
      ],
      "stateMutability": "view",
      "type": "function"
    },
    {
      "inputs": [
        {
          "internalType": "uint256",
          "name": "",
          "type": "uint256"
        },
        {
          "internalType": "address",
          "name": "",
          "type": "address"
        }
      ],
      "name": "hasVoted",
      "outputs": [
        {
          "internalType": "bool",
          "name": "",
          "type": "bool"
        }
      ],
      "stateMutability": "view",
      "type": "function"
    },
    {
      "inputs": [],
      "name": "protocolId",
      "outputs": [
        {
          "internalType": "uint256",
          "name": "",
          "type": "uint256"
        }
      ],
      "stateMutability": "pure",
      "type": "function"
    },
    {
      "inputs": [
        {
          "internalType": "uint256",
          "name": "pollId",
          "type": "uint256"
        }
      ],
      "name": "requestFinalization",
      "outputs": [],
      "stateMutability": "nonpayable",
      "type": "function"
    },
    {
      "inputs": [
        {
          "internalType": "uint256",
          "name": "pollId",
          "type": "uint256"
        },
        {
          "internalType": "externalEuint32",
          "name": "encryptedOptionIndex",
          "type": "bytes32"
        },
        {
          "internalType": "bytes",
          "name": "inputProof",
          "type": "bytes"
        }
      ],
      "name": "vote",
      "outputs": [],
      "stateMutability": "nonpayable",
      "type": "function"
    }
  ],
  "transactionHash": "0xcadf5fdea2395f7d5316efa893b00919ea63e1b13edc55264fe09f20a3dfc9b1",
  "args": [],
  "numDeployments": 1,
  "solcInputHash": "3960a0e6bcc78a5a1eb2178c3f4aaa62",
  "bytecode": "0x608060405234801561000f575f5ffd5b5061018a6100ae604080516080810182525f808252602082018190529181018290526060810191909152506040805160808101825273687820221192c5b662b25367f70076a37bc79b6c815273848b0066793bcc60346da1f49049357399b8d595602082015273a02cda4ca3a71d7c46997716f4283aa851c2881291810191909152731364cbbf2cdf5032c47d8226a6f6fbd2afcdacac606082015290565b80517f9e7b61f58c47dc699ac88507c4f5bb9f121c03808c5676a8078fe583e464970080546001600160a01b03199081166001600160a01b039384161790915560208301517f9e7b61f58c47dc699ac88507c4f5bb9f121c03808c5676a8078fe583e46497018054831691841691909117905560408301517f9e7b61f58c47dc699ac88507c4f5bb9f121c03808c5676a8078fe583e46497028054831691841691909117905560608301517f9e7b61f58c47dc699ac88507c4f5bb9f121c03808c5676a8078fe583e46497038054909216921691909117905550565b6126f6806101975f395ff3fe608060405234801561000f575f5ffd5b50600436106100e5575f3560e01c8063507c93991161008857806381a60c0d1161006357806381a60c0d146101fc578063d3b2373a1461021c578063da1f12ab1461022f578063dc296ae114610237575f5ffd5b8063507c9399146101c15780635eff1bb8146101d657806368814af8146101e9575f5ffd5b806329b8f44a116100c357806329b8f44a14610137578063438596321461015e57806343d3a4c11461019b5780634a67faaa146101ae575f5ffd5b806301b99125146100e9578063045e3bab1461010f57806311a527461461012f575b5f5ffd5b6100fc6100f7366004611cda565b61024a565b6040519081526020015b60405180910390f35b61012261011d366004611cfa565b610320565b6040516101069190611d4b565b6001546100fc565b61014a610145366004611cfa565b610425565b604051610106989796959493929190611de5565b61018b61016c366004611e53565b600260209081525f928352604080842090915290825290205460ff1681565b6040519015158152602001610106565b6100fc6101a9366004611cfa565b61064b565b61018b6101bc366004611f66565b6106aa565b6101d46101cf366004611cfa565b6108c7565b005b6101d46101e4366004612051565b610b02565b6100fc6101f7366004611cfa565b610eb6565b61020f61020a366004611cfa565b610f15565b60405161010691906120cd565b6100fc61022a366004612131565b61104c565b6127116100fc565b61018b610245366004611e53565b611385565b5f8260015481106102985760405162461bcd60e51b8152602060048201526013602482015272141bdb1b08191bd95cc81b9bdd08195e1a5cdd606a1b60448201526064015b60405180910390fd5b5f848152602081905260409020600581015484106102f85760405162461bcd60e51b815260206004820152601460248201527f496e76616c6964206f7074696f6e20696e646578000000000000000000000000604482015260640161028f565b80600501848154811061030d5761030d61222e565b905f5260205f2001549250505092915050565b606081600154811061036a5760405162461bcd60e51b8152602060048201526013602482015272141bdb1b08191bd95cc81b9bdd08195e1a5cdd606a1b604482015260640161028f565b5f838152602081905260408120600581015490919067ffffffffffffffff81111561039757610397611e8c565b6040519080825280602002602001820160405280156103c0578160200160208202803683370190505b5090505f5b600583015481101561041a576103f58360050182815481106103e9576103e961222e565b905f5260205f20015490565b8282815181106104075761040761222e565b60209081029190910101526001016103c5565b509250505b50919050565b6060805f5f5f5f5f5f8860015481106104765760405162461bcd60e51b8152602060048201526013602482015272141bdb1b08191bd95cc81b9bdd08195e1a5cdd606a1b604482015260640161028f565b5f8a815260208190526040902060028101546003820154600783015483548493600185019367ffffffffffffffff808316946801000000000000000090930416926001600160a01b0382169260ff600160a01b8404811693600160a81b9004169188906104e290612242565b80601f016020809104026020016040519081016040528092919081815260200182805461050e90612242565b80156105595780601f1061053057610100808354040283529160200191610559565b820191905f5260205f20905b81548152906001019060200180831161053c57829003601f168201915b5050505050975086805480602002602001604051908101604052809291908181526020015f905b82821015610628578382905f5260205f2001805461059d90612242565b80601f01602080910402602001604051908101604052809291908181526020018280546105c990612242565b80156106145780601f106105eb57610100808354040283529160200191610614565b820191905f5260205f20905b8154815290600101906020018083116105f757829003601f168201915b505050505081526020019060010190610580565b505050509650995099509950995099509950995099505050919395975091939597565b5f8160015481106106945760405162461bcd60e51b8152602060048201526013602482015272141bdb1b08191bd95cc81b9bdd08195e1a5cdd606a1b604482015260640161028f565b50505f9081526020819052604090206007015490565b5f8381526003602052604081205460015481106107095760405162461bcd60e51b815260206004820152601260248201527f496e76616c696420726571756573742049440000000000000000000000000000604482015260640161028f565b5f8181526020819052604090206003810154600160a81b900460ff1680156107345750858160040154145b6107805760405162461bcd60e51b815260206004820152601560248201527f4e6f2070656e64696e672064656372797074696f6e0000000000000000000000604482015260640161028f565b5f858060200190518101906107959190612274565b60058301548151919250146107ec5760405162461bcd60e51b815260206004820152601660248201527f526573756c74206c656e677468206d69736d6174636800000000000000000000604482015260640161028f565b5f5b8151811015610864578181815181106108095761080961222e565b60200260200101518360060182815481106108265761082661222e565b905f5260205f2090600891828204019190066004026101000a81548163ffffffff021916908363ffffffff16021790555080806001019150506107ee565b5060038201805461ffff60a01b1916600160a01b17905560405183907f6918d5a0ed61f157504a62e68fa7036312ca378ced982047aa609f6cbfa1eb67906108b090600686019061230c565b60405180910390a2600193505050505b9392505050565b80600154811061090f5760405162461bcd60e51b8152602060048201526013602482015272141bdb1b08191bd95cc81b9bdd08195e1a5cdd606a1b604482015260640161028f565b5f8281526020819052604090206003810154600160a01b900460ff16156109785760405162461bcd60e51b815260206004820152601660248201527f506f6c6c20616c72656164792066696e616c697a656400000000000000000000604482015260640161028f565b6003810154600160a81b900460ff16156109d45760405162461bcd60e51b815260206004820152601a60248201527f44656372797074696f6e20616c72656164792070656e64696e67000000000000604482015260640161028f565b60058101545f9067ffffffffffffffff8111156109f3576109f3611e8c565b604051908082528060200260200182016040528015610a1c578160200160208202803683370190505b5090505f5b6005830154811015610a6a57610a458360050182815481106103e9576103e961222e565b828281518110610a5757610a5761222e565b6020908102919091010152600101610a21565b505f610a7d82632533fd5560e11b6113fa565b600384810180547fffffffffffffffffffff00ffffffffffffffffffffffffffffffffffffffffff16600160a81b179055600485018290555f82815260209182526040908190208890555182815291925086917f0f478d31cfd91eebd196fcbff57e3c9f770adf124b87e9067958877039600ab9910160405180910390a25050505050565b836001548110610b4a5760405162461bcd60e51b8152602060048201526013602482015272141bdb1b08191bd95cc81b9bdd08195e1a5cdd606a1b604482015260640161028f565b5f858152602081905260409020600281015467ffffffffffffffff16421015610bb55760405162461bcd60e51b815260206004820152601660248201527f566f74696e6720686173206e6f74207374617274656400000000000000000000604482015260640161028f565b600281015468010000000000000000900467ffffffffffffffff16421115610c1f5760405162461bcd60e51b815260206004820152601060248201527f566f74696e672068617320656e64656400000000000000000000000000000000604482015260640161028f565b6003810154600160a01b900460ff1615610c7b5760405162461bcd60e51b815260206004820152601160248201527f506f6c6c2069732066696e616c697a6564000000000000000000000000000000604482015260640161028f565b5f86815260026020908152604080832033845290915290205460ff1615610ce45760405162461bcd60e51b815260206004820152600d60248201527f416c726561647920766f74656400000000000000000000000000000000000000604482015260640161028f565b5f610d248686868080601f0160208091040260200160405190810160405280939291908181526020018383808284375f9201919091525061140692505050565b90505f5b6001830154811015610e40575f610d4783610d4284611419565b61142b565b90505f610d6682610d586001611419565b610d615f611419565b611459565b9050610d8f856005018481548110610d8057610d8061222e565b905f5260205f2001548261146d565b856005018481548110610da457610da461222e565b905f5260205f200181905550610dd6856005018481548110610dc857610dc861222e565b905f5260205f20015461149b565b50610dfe856005018481548110610def57610def61222e565b905f5260205f200154336114aa565b50610e35856005018481548110610e1757610e1761222e565b5f9182526020909120015460038701546001600160a01b03166114aa565b505050600101610d28565b505f8781526002602090815260408083203384529091528120805460ff1916600190811790915560078401805491929091610e7c9084906124b5565b9091555050604051339088907ff1003b73c437642c0460aee9cd9628b0b8c447b66e6c7c905531b9c644214a11905f90a350505050505050565b5f816001548110610eff5760405162461bcd60e51b8152602060048201526013602482015272141bdb1b08191bd95cc81b9bdd08195e1a5cdd606a1b604482015260640161028f565b50505f9081526020819052604090206004015490565b6060816001548110610f5f5760405162461bcd60e51b8152602060048201526013602482015272141bdb1b08191bd95cc81b9bdd08195e1a5cdd606a1b604482015260640161028f565b5f8381526020819052604090206003810154600160a01b900460ff16610fc75760405162461bcd60e51b815260206004820152601260248201527f506f6c6c206e6f742066696e616c697a65640000000000000000000000000000604482015260640161028f565b8060060180548060200260200160405190810160405280929190818152602001828054801561103e57602002820191905f5260205f20905f905b82829054906101000a900463ffffffff1663ffffffff16815260200190600401906020826003010492830192600103820291508084116110015790505b505050505092505050919050565b5f5f85511161109d5760405162461bcd60e51b815260206004820152601560248201527f5469746c652063616e6e6f7420626520656d7074790000000000000000000000604482015260640161028f565b60028451101580156110b157506010845111155b6110fd5760405162461bcd60e51b815260206004820152601660248201527f4d757374206861766520322d3136206f7074696f6e7300000000000000000000604482015260640161028f565b8267ffffffffffffffff168267ffffffffffffffff161161116a5760405162461bcd60e51b815260206004820152602160248201527f456e642074696d65206d7573742062652061667465722073746172742074696d6044820152606560f81b606482015260840161028f565b428267ffffffffffffffff16116111c35760405162461bcd60e51b815260206004820152601e60248201527f456e642074696d65206d75737420626520696e20746865206675747572650000604482015260640161028f565b60018054905f6111d2836124c8565b909155505f818152602081905260409020909150806111f1878261252c565b5084516112079060018301906020880190611b34565b5060028101805467ffffffffffffffff8681166fffffffffffffffffffffffffffffffff19909216919091176801000000000000000086831602179091556003820180547fffffffffffffffffffff00000000000000000000000000000000000000000000163361ffff60a01b19161790555f60048301819055600783015585519081111561129857611298611e8c565b6040519080825280602002602001820160405280156112c1578160200160208202803683370190505b5080516112d8916005840191602090910190611b84565b50845167ffffffffffffffff8111156112f3576112f3611e8c565b60405190808252806020026020018201604052801561131c578160200160208202803683370190505b508051611333916006840191602090910190611bc9565b50336001600160a01b0316827f7a9eebb566fd30c38b8837a1ac52795f3015988835b4514beb814f18e8b431d88888888860405161137494939291906125e7565b60405180910390a350949350505050565b5f8260015481106113ce5760405162461bcd60e51b8152602060048201526013602482015272141bdb1b08191bd95cc81b9bdd08195e1a5cdd606a1b604482015260640161028f565b50505f9182526002602090815260408084206001600160a01b0393909316845291905290205460ff1690565b5f6108c083835f6114bc565b5f6108c0838360046115ea565b92915050565b5f6114138263ffffffff16600461170a565b5f8261143d5761143a5f611419565b92505b8161144e5761144b5f611419565b91505b6108c083835f6117bf565b5f6114658484846118ba565b949350505050565b5f8261147f5761147c5f611419565b92505b816114905761148d5f611419565b91505b6108c083835f611963565b5f6114a68230611a18565b5090565b5f6114b58383611a18565b5090919050565b7f878245876662ba28a480c5ea71726db859fb50222b0a3d7cbbc21cfa336faf0080547f9e7b61f58c47dc699ac88507c4f5bb9f121c03808c5676a8078fe583e46497008054604051637d6e912360e11b81529293926001600160a01b039091169063fadd224690611532908990600401611d4b565b5f604051808303815f87803b158015611549575f5ffd5b505af115801561155b573d5f5f3e3d5ffd5b5050506002820154604051633263b83b60e01b81526001600160a01b039091169150633263b83b9086906115979087908b908b90600401612637565b5f604051808303818588803b1580156115ae575f5ffd5b505af11580156115c0573d5f5f3e3d5ffd5b50505050506115cf8387611aa1565b8154825f6115dc836124c8565b919050555050509392505050565b7f9e7b61f58c47dc699ac88507c4f5bb9f121c03808c5676a8078fe583e46497015460405163196d0b9b60e01b81525f917f9e7b61f58c47dc699ac88507c4f5bb9f121c03808c5676a8078fe583e4649700916001600160a01b039091169063196d0b9b90611663908890339089908990600401612688565b6020604051808303815f875af115801561167f573d5f5f3e3d5ffd5b505050506040513d601f19601f820116820180604052508101906116a391906126be565b8154604051630f8e573b60e21b8152600481018390523360248201529193506001600160a01b031690633e395cec906044015f604051808303815f87803b1580156116ec575f5ffd5b505af11580156116fe573d5f5f3e3d5ffd5b50505050509392505050565b7f9e7b61f58c47dc699ac88507c4f5bb9f121c03808c5676a8078fe583e464970154604051639cd07acb60e01b81525f917f9e7b61f58c47dc699ac88507c4f5bb9f121c03808c5676a8078fe583e4649700916001600160a01b0390911690639cd07acb9061177f90879087906004016126d5565b6020604051808303815f875af115801561179b573d5f5f3e3d5ffd5b505050506040513d601f19601f8201168201806040525081019061146591906126be565b5f5f82156117d25750600160f81b6117d5565b505f5b7f9e7b61f58c47dc699ac88507c4f5bb9f121c03808c5676a8078fe583e46497015460405163f77f3f1d60e01b815260048101879052602481018690527fff00000000000000000000000000000000000000000000000000000000000000831660448201527f9e7b61f58c47dc699ac88507c4f5bb9f121c03808c5676a8078fe583e4649700916001600160a01b03169063f77f3f1d906064015b6020604051808303815f875af115801561188c573d5f5f3e3d5ffd5b505050506040513d601f19601f820116820180604052508101906118b091906126be565b9695505050505050565b5f807f9e7b61f58c47dc699ac88507c4f5bb9f121c03808c5676a8078fe583e46497006001810154604051637702dcff60e01b81526004810188905260248101879052604481018690529192506001600160a01b031690637702dcff906064016020604051808303815f875af1158015611936573d5f5f3e3d5ffd5b505050506040513d601f19601f8201168201806040525081019061195a91906126be565b95945050505050565b5f5f82156119765750600160f81b611979565b505f5b7f9e7b61f58c47dc699ac88507c4f5bb9f121c03808c5676a8078fe583e46497015460405163022f65e760e31b815260048101879052602481018690527fff00000000000000000000000000000000000000000000000000000000000000831660448201527f9e7b61f58c47dc699ac88507c4f5bb9f121c03808c5676a8078fe583e4649700916001600160a01b03169063117b2f3890606401611870565b5f7f9e7b61f58c47dc699ac88507c4f5bb9f121c03808c5676a8078fe583e46497008054604051635ca4b5b160e11b8152600481018690526001600160a01b03858116602483015292935091169063b9496b62906044015f604051808303815f87803b158015611a86575f5ffd5b505af1158015611a98573d5f5f3e3d5ffd5b50505050505050565b5f8281527f878245876662ba28a480c5ea71726db859fb50222b0a3d7cbbc21cfa336faf0160205260409020547f878245876662ba28a480c5ea71726db859fb50222b0a3d7cbbc21cfa336faf009015611b0e57604051633f06d22b60e01b815260040160405180910390fd5b5f83815260018201602090815260409091208351611b2e92850190611b84565b50505050565b828054828255905f5260205f20908101928215611b78579160200282015b82811115611b785782518290611b68908261252c565b5091602001919060010190611b52565b506114a6929150611c70565b828054828255905f5260205f20908101928215611bbd579160200282015b82811115611bbd578251825591602001919060010190611ba2565b506114a6929150611c8c565b828054828255905f5260205f2090600701600890048101928215611bbd579160200282015f5b83821115611c3357835183826101000a81548163ffffffff021916908363ffffffff1602179055509260200192600401602081600301049283019260010302611bef565b8015611c635782816101000a81549063ffffffff0219169055600401602081600301049283019260010302611c33565b50506114a6929150611c8c565b808211156114a6575f611c838282611ca0565b50600101611c70565b5b808211156114a6575f8155600101611c8d565b508054611cac90612242565b5f825580601f10611cbb575050565b601f0160209004905f5260205f2090810190611cd79190611c8c565b50565b5f5f60408385031215611ceb575f5ffd5b50508035926020909101359150565b5f60208284031215611d0a575f5ffd5b5035919050565b5f8151808452602084019350602083015f5b82811015611d41578151865260209586019590910190600101611d23565b5093949350505050565b602081525f6108c06020830184611d11565b5f81518084528060208401602086015e5f602082860101526020601f19601f83011685010191505092915050565b5f82825180855260208501945060208160051b830101602085015f5b83811015611dd957601f19858403018852611dc3838351611d5d565b6020988901989093509190910190600101611da7565b50909695505050505050565b61010081525f611df961010083018b611d5d565b8281036020840152611e0b818b611d8b565b67ffffffffffffffff998a166040850152979098166060830152506001600160a01b0394909416608085015291151560a0840152151560c083015260e0909101529392505050565b5f5f60408385031215611e64575f5ffd5b8235915060208301356001600160a01b0381168114611e81575f5ffd5b809150509250929050565b634e487b7160e01b5f52604160045260245ffd5b604051601f8201601f1916810167ffffffffffffffff81118282101715611ec957611ec9611e8c565b604052919050565b5f82601f830112611ee0575f5ffd5b8135602083015f5f67ffffffffffffffff841115611f0057611f00611e8c565b50601f8301601f1916602001611f1581611ea0565b915050828152858383011115611f29575f5ffd5b828260208301375f92810160200192909252509392505050565b5f67ffffffffffffffff821115611f5c57611f5c611e8c565b5060051b60200190565b5f5f5f60608486031215611f78575f5ffd5b83359250602084013567ffffffffffffffff811115611f95575f5ffd5b611fa186828701611ed1565b925050604084013567ffffffffffffffff811115611fbd575f5ffd5b8401601f81018613611fcd575f5ffd5b8035611fe0611fdb82611f43565b611ea0565b8082825260208201915060208360051b850101925088831115612001575f5ffd5b602084015b8381101561204257803567ffffffffffffffff811115612024575f5ffd5b6120338b602083890101611ed1565b84525060209283019201612006565b50809450505050509250925092565b5f5f5f5f60608587031215612064575f5ffd5b8435935060208501359250604085013567ffffffffffffffff811115612088575f5ffd5b8501601f81018713612098575f5ffd5b803567ffffffffffffffff8111156120ae575f5ffd5b8760208284010111156120bf575f5ffd5b949793965060200194505050565b602080825282518282018190525f918401906040840190835b8181101561210a57835163ffffffff168352602093840193909201916001016120e6565b509095945050505050565b803567ffffffffffffffff8116811461212c575f5ffd5b919050565b5f5f5f5f60808587031215612144575f5ffd5b843567ffffffffffffffff81111561215a575f5ffd5b61216687828801611ed1565b945050602085013567ffffffffffffffff811115612182575f5ffd5b8501601f81018713612192575f5ffd5b80356121a0611fdb82611f43565b8082825260208201915060208360051b8501019250898311156121c1575f5ffd5b602084015b8381101561220257803567ffffffffffffffff8111156121e4575f5ffd5b6121f38c602083890101611ed1565b845250602092830192016121c6565b5095506122159250505060408601612115565b915061222360608601612115565b905092959194509250565b634e487b7160e01b5f52603260045260245ffd5b600181811c9082168061225657607f821691505b60208210810361041f57634e487b7160e01b5f52602260045260245ffd5b5f60208284031215612284575f5ffd5b815167ffffffffffffffff81111561229a575f5ffd5b8201601f810184136122aa575f5ffd5b80516122b8611fdb82611f43565b8082825260208201915060208360051b8501019250868311156122d9575f5ffd5b6020840193505b828410156118b057835163ffffffff811681146122fb575f5ffd5b8252602093840193909101906122e0565b5f6020820160208352808454612326818490815260200190565b5f8781526020812094509092505b816007820110156123ac57835463ffffffff8082168552602082811c821690860152604082811c821690860152606082811c821690860152608082811c82169086015260a082811c82169086015260c082811c9091169085015260e090811c9084015260019093019261010090920191600801612334565b925492818110156123ca5763ffffffff841683526020909201916001015b818110156123ea57602084901c63ffffffff168352602092909201916001015b818110156124095763ffffffff604085901c1683526020909201916001015b818110156124285763ffffffff606085901c1683526020909201916001015b818110156124475763ffffffff608085901c1683526020909201916001015b818110156124665763ffffffff60a085901c1683526020909201916001015b818110156124855763ffffffff60c085901c1683526020909201916001015b8181101561210a5760e084901c83525050602001949350505050565b634e487b7160e01b5f52601160045260245ffd5b80820180821115611413576114136124a1565b5f600182016124d9576124d96124a1565b5060010190565b601f82111561252757805f5260205f20601f840160051c810160208510156125055750805b601f840160051c820191505b81811015612524575f8155600101612511565b50505b505050565b815167ffffffffffffffff81111561254657612546611e8c565b61255a816125548454612242565b846124e0565b6020601f82116001811461258c575f83156125755750848201515b5f19600385901b1c1916600184901b178455612524565b5f84815260208120601f198516915b828110156125bb578785015182556020948501946001909201910161259b565b50848210156125d857868401515f19600387901b60f8161c191681555b50505050600190811b01905550565b608081525f6125f96080830187611d5d565b828103602084015261260b8187611d8b565b91505067ffffffffffffffff8416604083015267ffffffffffffffff8316606083015295945050505050565b838152606060208201525f61264f6060830185611d11565b905063ffffffff60e01b83166040830152949350505050565b6054811061268457634e487b7160e01b5f52602160045260245ffd5b9052565b8481526001600160a01b0384166020820152608060408201525f6126af6080830185611d5d565b905061195a6060830184612668565b5f602082840312156126ce575f5ffd5b5051919050565b828152604081016108c0602083018461266856fea164736f6c634300081b000a",
  "devdoc": {
    "details": "Uses FHEVM for encrypted vote counting and decryption oracle for results",
    "kind": "dev",
    "methods": {
      "createPoll(string,string[],uint64,uint64)": {
        "params": {
          "endTime": "Unix timestamp when voting ends",
          "options": "Array of option strings (2-16 options)",
          "startTime": "Unix timestamp when voting starts",
          "title": "The title/question of the poll"
        },
        "returns": {
          "pollId": "The ID of the created poll"
        }
      },
      "decryptionCallback(uint256,bytes,bytes[])": {
        "params": {
          "cleartexts": "The decrypted values",
          "requestId": "The decryption request ID",
          "signatures": "KMS signatures for verification"
        }
      },
      "requestFinalization(uint256)": {
        "params": {
          "pollId": "The ID of the poll to finalize"
        }
      },
      "vote(uint256,bytes32,bytes)": {
        "params": {
          "encryptedOptionIndex": "Encrypted index of the chosen option",
          "inputProof": "Proof for the encrypted input",
          "pollId": "The ID of the poll"
        }
      }
    },
    "title": "MultiChoiceVoting - FHE-based encrypted multi-choice voting system",
    "version": 1
  },
  "userdoc": {
    "errors": {
      "HandlesAlreadySavedForRequestID()": [
        {
          "notice": "Returned if some handles were already saved for corresponding ID."
        }
      ]
    },
    "kind": "user",
    "methods": {
      "createPoll(string,string[],uint64,uint64)": {
        "notice": "Create a new poll with multiple options"
      },
      "decryptionCallback(uint256,bytes,bytes[])": {
        "notice": "Callback function for decryption oracle"
      },
      "getEncryptedCount(uint256,uint256)": {
        "notice": "Get encrypted count for a specific option"
      },
      "getEncryptedCounts(uint256)": {
        "notice": "Get encrypted vote counts (returns as bytes32 array)"
      },
      "getPollCount()": {
        "notice": "Get total number of polls"
      },
      "getPollInfo(uint256)": {
        "notice": "Get basic poll information"
      },
      "getRequestId(uint256)": {
        "notice": "Get the request ID for a poll (for manual finalization in mock mode)"
      },
      "getResults(uint256)": {
        "notice": "Get final decrypted results (only after finalization)"
      },
      "getTotalVoters(uint256)": {
        "notice": "Get the total number of voters for a poll"
      },
      "hasUserVoted(uint256,address)": {
        "notice": "Check if an address has voted on a specific poll"
      },
      "requestFinalization(uint256)": {
        "notice": "Request decryption to finalize poll results"
      },
      "vote(uint256,bytes32,bytes)": {
        "notice": "Cast an encrypted vote for a poll"
      }
    },
    "notice": "Allows users to create polls and vote with encrypted choices",
    "version": 1
  },
  "storageLayout": {
    "storage": [
      {
        "astId": 39069,
        "contract": "contracts/MultiChoiceVoting.sol:MultiChoiceVoting",
        "label": "_polls",
        "offset": 0,
        "slot": "0",
        "type": "t_mapping(t_uint256,t_struct(Poll)39064_storage)"
      },
      {
        "astId": 39071,
        "contract": "contracts/MultiChoiceVoting.sol:MultiChoiceVoting",
        "label": "_pollCount",
        "offset": 0,
        "slot": "1",
        "type": "t_uint256"
      },
      {
        "astId": 39077,
        "contract": "contracts/MultiChoiceVoting.sol:MultiChoiceVoting",
        "label": "hasVoted",
        "offset": 0,
        "slot": "2",
        "type": "t_mapping(t_uint256,t_mapping(t_address,t_bool))"
      },
      {
        "astId": 39081,
        "contract": "contracts/MultiChoiceVoting.sol:MultiChoiceVoting",
        "label": "_requestToPoll",
        "offset": 0,
        "slot": "3",
        "type": "t_mapping(t_uint256,t_uint256)"
      }
    ],
    "types": {
      "t_address": {
        "encoding": "inplace",
        "label": "address",
        "numberOfBytes": "20"
      },
      "t_array(t_string_storage)dyn_storage": {
        "base": "t_string_storage",
        "encoding": "dynamic_array",
        "label": "string[]",
        "numberOfBytes": "32"
      },
      "t_array(t_uint32)dyn_storage": {
        "base": "t_uint32",
        "encoding": "dynamic_array",
        "label": "uint32[]",
        "numberOfBytes": "32"
      },
      "t_array(t_userDefinedValueType(euint32)39931)dyn_storage": {
        "base": "t_userDefinedValueType(euint32)39931",
        "encoding": "dynamic_array",
        "label": "euint32[]",
        "numberOfBytes": "32"
      },
      "t_bool": {
        "encoding": "inplace",
        "label": "bool",
        "numberOfBytes": "1"
      },
      "t_mapping(t_address,t_bool)": {
        "encoding": "mapping",
        "key": "t_address",
        "label": "mapping(address => bool)",
        "numberOfBytes": "32",
        "value": "t_bool"
      },
      "t_mapping(t_uint256,t_mapping(t_address,t_bool))": {
        "encoding": "mapping",
        "key": "t_uint256",
        "label": "mapping(uint256 => mapping(address => bool))",
        "numberOfBytes": "32",
        "value": "t_mapping(t_address,t_bool)"
      },
      "t_mapping(t_uint256,t_struct(Poll)39064_storage)": {
        "encoding": "mapping",
        "key": "t_uint256",
        "label": "mapping(uint256 => struct MultiChoiceVoting.Poll)",
        "numberOfBytes": "32",
        "value": "t_struct(Poll)39064_storage"
      },
      "t_mapping(t_uint256,t_uint256)": {
        "encoding": "mapping",
        "key": "t_uint256",
        "label": "mapping(uint256 => uint256)",
        "numberOfBytes": "32",
        "value": "t_uint256"
      },
      "t_string_storage": {
        "encoding": "bytes",
        "label": "string",
        "numberOfBytes": "32"
      },
      "t_struct(Poll)39064_storage": {
        "encoding": "inplace",
        "label": "struct MultiChoiceVoting.Poll",
        "members": [
          {
            "astId": 39039,
            "contract": "contracts/MultiChoiceVoting.sol:MultiChoiceVoting",
            "label": "title",
            "offset": 0,
            "slot": "0",
            "type": "t_string_storage"
          },
          {
            "astId": 39042,
            "contract": "contracts/MultiChoiceVoting.sol:MultiChoiceVoting",
            "label": "options",
            "offset": 0,
            "slot": "1",
            "type": "t_array(t_string_storage)dyn_storage"
          },
          {
            "astId": 39044,
            "contract": "contracts/MultiChoiceVoting.sol:MultiChoiceVoting",
            "label": "startTime",
            "offset": 0,
            "slot": "2",
            "type": "t_uint64"
          },
          {
            "astId": 39046,
            "contract": "contracts/MultiChoiceVoting.sol:MultiChoiceVoting",
            "label": "endTime",
            "offset": 8,
            "slot": "2",
            "type": "t_uint64"
          },
          {
            "astId": 39048,
            "contract": "contracts/MultiChoiceVoting.sol:MultiChoiceVoting",
            "label": "creator",
            "offset": 0,
            "slot": "3",
            "type": "t_address"
          },
          {
            "astId": 39050,
            "contract": "contracts/MultiChoiceVoting.sol:MultiChoiceVoting",
            "label": "finalized",
            "offset": 20,
            "slot": "3",
            "type": "t_bool"
          },
          {
            "astId": 39052,
            "contract": "contracts/MultiChoiceVoting.sol:MultiChoiceVoting",
            "label": "decryptionPending",
            "offset": 21,
            "slot": "3",
            "type": "t_bool"
          },
          {
            "astId": 39054,
            "contract": "contracts/MultiChoiceVoting.sol:MultiChoiceVoting",
            "label": "requestId",
            "offset": 0,
            "slot": "4",
            "type": "t_uint256"
          },
          {
            "astId": 39058,
            "contract": "contracts/MultiChoiceVoting.sol:MultiChoiceVoting",
            "label": "encryptedCounts",
            "offset": 0,
            "slot": "5",
            "type": "t_array(t_userDefinedValueType(euint32)39931)dyn_storage"
          },
          {
            "astId": 39061,
            "contract": "contracts/MultiChoiceVoting.sol:MultiChoiceVoting",
            "label": "decryptedCounts",
            "offset": 0,
            "slot": "6",
            "type": "t_array(t_uint32)dyn_storage"
          },
          {
            "astId": 39063,
            "contract": "contracts/MultiChoiceVoting.sol:MultiChoiceVoting",
            "label": "totalVoters",
            "offset": 0,
            "slot": "7",
            "type": "t_uint256"
          }
        ],
        "numberOfBytes": "256"
      },
      "t_uint256": {
        "encoding": "inplace",
        "label": "uint256",
        "numberOfBytes": "32"
      },
      "t_uint32": {
        "encoding": "inplace",
        "label": "uint32",
        "numberOfBytes": "4"
      },
      "t_uint64": {
        "encoding": "inplace",
        "label": "uint64",
        "numberOfBytes": "8"
      },
      "t_userDefinedValueType(euint32)39931": {
        "encoding": "inplace",
        "label": "euint32",
        "numberOfBytes": "32"
      }
    }
  }
}